:100000000C9450000C946D000C946D000C946D00D9
:100010000C946D000C946D000C946D000C946D00AC
:100020000C946D000C9481070C946D000C946D0081
:100030000C946D000C946D000C946D000C946D008C
:100040000C946D000C94D2070C94F4070C946D0082
:100050000C946D000C946D000C946D000C946D006C
:100060000C946D000C946D000C946D000C946D005C
:100070000C946D000C946D000C946D000C946D004C
:100080000C946D000C946D000C946D000C946D003C
:100090000C946D000C946D000C946D000C946D002C
:1000A00011241FBECFEFCDBFDFE3DEBF18E2A0E01B
:1000B000B8E2E0ECF3E102C005900D92A230B10786
:1000C000D9F72BE2A2E0B8E201C01D92A037B20737
:1000D000E1F70E9411010C9480090C9400008091BA
:1000E000080680FD2DC081E080930B06409110062C
:1000F0005091110620910228E22FF0E0EE0FFF1F31
:10010000ED5FF74D80819181BC01660F771F860FEF
:10011000971F840F951F9695879596958795808351
:10012000918381E0820F809302288D3010F010922D
:100130000228809102288093060681E080930806B9
:1001400008958093060681E08093080680910B064F
:1001500080FFFCCF81E080930B0680911006909188
:1001600011060895CF93DF9384E080937004809309
:100170007104809372048093730480937404809359
:100180007504809376048093770480939004809321
:10019000910480939204809393048093B20480939B
:1001A000B3048093B4048093B5041092010682E5F1
:1001B0008093020680E48093030610920406109256
:1001C000050681E0809316068093000680930B0657
:1001D000109202280FC0C82FD0E00E94A100CC0FBF
:1001E000DD1FCD5FD74D88839983809102288F5F73
:1001F00080930228809102288D3068F310920228A3
:100200001092060681E080930806DF91CF91089551
:10021000E82FF0E0EE0FFF1FED5FF74D8081918139
:10022000089588ED90E084BF9093600021E030E075
:1002300084BF209361000E941D080E94B2000E94AA
:10024000B8020E94B8040E9461070E94B407789423
:1002500084E080930104809307040E9439080E947F
:100260006F000E94D6020E9440030E94BB04F5CF9B
:10027000809300280895809100288C30C8F490E085
:10028000FC01EE0FFF1F880F991F880F991F880F21
:10029000991FE80FF91FEB50F74D80819181A0E085
:1002A000B0E0DC019927882782839383A483B583F8
:1002B0000895E0910028EC3070F4F0E0CF01880F51
:1002C000991F880F991FE80FF91FE754F74D81E038
:1002D0008083118212820895E0910028EC30B0F4FE
:1002E000843F21E0920790F0853C29E0920770F46A
:1002F000F0E09F01220F331F220F331FE20FF31F85
:10030000E754F74D21E02083818392830895089577
:10031000209100282C3068F430E0F901EE0FFF1F27
:10032000EE0FFF1F2E0F3F1FF901E754F74D838398
:10033000948308958093B3289093B4280895FF92EE
:100340000F931F93CF93DF938C01F12C1EC0B80144
:100350000E946C09892BC1F4CE01880F991F880F68
:10036000991FC80FD91FCC57DC4AEA81FB81E09363
:100370002728F09328288C8180932628811114C087
:1003800080E090E0099510C0F394CF2DD0E0FE01FD
:10039000EE0FFF1FEE0FFF1FEC0FFD1FEC57FC4A87
:1003A00080819181009799F6DF91CF911F910F91F4
:1003B000FF90089588E593E50E946A08089580916A
:1003C00000288C3008F067C08AE20E9455088091AE
:1003D00000288A3050F09DEC899F812D112486954C
:1003E00086958695805D0E945508809100289DEC39
:1003F000899F912D1124969596959695990F292F61
:10040000220F220F920F891B805D0E94550881E503
:100410000E9455088091002890E0FC01EE0FFF1F1C
:100420009C01220F331F220F331F220F331FE20FB5
:10043000F31FEB50F74D4281538164817581411563
:1004400051056105710521F481E30E94550820C022
:10045000FC01EE0FFF1F880F991F880F991F880F4F
:10046000991FE80FF91FEB50F74D80819181A0E0B3
:10047000B0E0DC0199278827481759076A077B07EE
:1004800021F084E30E94550803C086E30E945508CA
:100490008DE00E9455080895CF93DF938CE00E9471
:1004A0000801EC018AE20E94550881E50E94550886
:1004B00086E50E945508DE0120EC37E54CE050E06F
:1004C0000E9426090E947F088DE00E945508DF9156
:1004D000CF910895CF93DF93809100288C30C0F5A1
:1004E0000E940801EC018AE20E94550880910028D0
:1004F0008A3050F09DEC899F812D11248695869538
:100500008695805D0E945508809100289DEC899F0A
:10051000912D1124969596959695990F292F220F36
:10052000220F920F891B805D0E94550881E50E9471
:10053000550880E50E945508DE0120E039E343E0DC
:1005400050E00E9426090E947F088DE00E94550815
:10055000DF91CF9108950E943D09E0912728F09105
:100560002828309721F020912628211109950895F7
:1005700080E012C0E82FF0E09F01220F331F220F0E
:10058000331FE20FF31FE754F74D91E09083118280
:100590001282138214828F5F8C3060F31092B32822
:1005A0001092B42881E0809332280895EF92FF9250
:1005B0001F93CF93DF931F92CDB7DEB755C0CE0107
:1005C00001960E943A08882309F453C01981E12E4C
:1005D000F12CC7010E945B09892B51F4C701C09718
:1005E0000A9740F0C7010E946409898312E003C0A2
:1005F00010E001C011E0809125281817B9F0E091B2
:100600002428F0E0E35EF74D1082813039F082302B
:1006100049F48DE198E20E949F0104C08DE198E2C7
:100620000E94AB021092242810932528112369F010
:1006300080912428863048F4E82FF0E0E35EF74DFF
:10064000998190838F5F8093242889818D3061F414
:1006500081E08093322810922728109228288FEF6B
:10066000809300281092262880913228882309F44C
:10067000A6CF0F90DF91CF911F91FF90EF9008953B
:100680008F929F92AF92BF92EF92FF921F93CF9360
:10069000DF9380913228882309F460C110923228B8
:1006A000C091B328D091B42810E092C0412F50E0FF
:1006B000FA01EE0FFF1FEE0FFF1FE40FF51FE754C7
:1006C000F74D8081882309F482C0FA01EE0FFF1FE5
:1006D000EE0FFF1FE40FF51FE754F74D2181328124
:1006E000C90101978E3F9F4F08F071C0CA01880F62
:1006F000991F880F991F880F991FFA01EE0FFF1F8E
:10070000E80FF91FEB50F74D80819181009709F4B4
:100710005EC0019609F45BC0CA01880F991F880F5B
:10072000991F880F991FFA01EE0FFF1FE80FF91F9D
:10073000EB50F74D82819381A481B5812A1B3B0B3D
:10074000D901BB2324F4AA27BB27A21BB30BFA01B0
:10075000EE0FFF1FEE0FFF1FE40FF51FE754F74DDD
:1007600083819481892B69F4FA01EE0FFF1FEE0F4C
:10077000FF1FE40FF51FE754F74D81E090E08383FE
:10078000948328EE33E00E941F09FA01EE0FFF1F49
:10079000EE0FFF1FE40FF51FE754F74D238134815F
:1007A00040E050E00E94CF0821153105F1E04F07ED
:1007B000510520F02FEF3FEF40E050E0CE01A0E0E8
:1007C000B0E082179307A407B50708F4E9011F5F9B
:1007D0001C3008F46BCF10E0A3C0812F90E0FC0127
:1007E000EE0FFF1FEE0FFF1FE80FF91FE754F74D45
:1007F0002081222309F493C0FC01EE0FFF1FEE0FAE
:10080000FF1FE80FF91FE754F74D618172819B01CB
:10081000215031092E3F3F4FB0F49C01220F331F6E
:10082000220F331F220F331FFC01EE0FFF1FE20FB9
:10083000F31FEB50F74D208131812115310519F05F
:100840002F3F3F4FF1F4FC01EE0FFF1F880F991F60
:10085000880F991F880F991FE80FF91FEB50F74D6C
:1008600060837183CB01A0E0B0E0DC019927882789
:1008700082839383A483B5831682178210861186A0
:100880004EC09C01220F331F880F991F880F991F9C
:10089000880F991F820F931F9C012B50374D7901B0
:1008A000F90160837183CB01A0E0B0E0DC019927FE
:1008B000882782809380A480B580BC01CD0168190F
:1008C00079098A099B094E01A12CB12CA50194013B
:1008D0000E94F108BA01A901440F551F661F771F36
:1008E000440F551F661F771FDB01CA01880F991F30
:1008F000AA1FBB1F880F991FAA1FBB1F840F951F1C
:10090000A61FB71FF70186839783A087B1878092C0
:10091000B5289092B628A092B728B092B8281F5F49
:100920001C3008F45ACF80E013C0E82FF0E09F019C
:10093000220F331F220F331FE20FF31FE754F74D2F
:1009400010822FEF3FEF23833483118212828F5F57
:100950008C3058F31092B3281092B428DF91CF91C5
:100960001F91FF90EF90BF90AF909F908F90089550
:100970000E94400308956F927F928F929F92AF9250
:10098000BF92CF92DF92EF92FF920F931F93CF937C
:10099000DF9380916D29883108F484C210926D290B
:1009A0002091AB283091AC284091AD285091AE28D1
:1009B0006091AF287091B0288091B1289091B228B1
:1009C000A1E00E9431092093AB283093AC284093DA
:1009D000AD285093AE286093AF287093B0288093D1
:1009E000B1289093B2288091B5289091B628A09113
:1009F000B728B091B8284497A109B1098093B528C8
:100A00009093B628A093B728B093B828BB2344F49A
:100A10001092B5281092B6281092B7281092B828D4
:100A200070E03DC2872F880F870F890FE82FF0E015
:100A3000DF01AA0FBB1F9F01220F331F220F331F9D
:100A4000220F331FA20FB31FAB50B74D16968D90D8
:100A50009D90AD90BC9019971296CD90DD90ED9041
:100A6000FC901597C80CD91CEA1CFB1C1296CD9261
:100A7000DD92ED92FC921597181419041A041B04C8
:100A8000D4F49F01220F331F220F331F220F331F75
:100A9000DF01AA0FBB1FA20FB31FAB50B74D0D91C3
:100AA0001C9120E030E09801112700270C151D054E
:100AB0002E053F05E0F0BB20B4F59F01220F331F48
:100AC000220F331F220F331FDF01AA0FBB1FA20FFC
:100AD000B31FAB50B74D0D911C9120E030E0980151
:100AE00011270027C016D106E206F306E0F49F01A5
:100AF000220F331F220F331F220F331FDF01AA0FD4
:100B0000BB1FA20FB31FAB50B74D0D911C91119796
:100B100020E030E098011127002712960D931D93D5
:100B20002D933C931597292F30E0D901AA0FBB1FB5
:100B3000A20FB31FA75DB74D8C93AF01440F551F94
:100B4000EE0FFF1FEE0FFF1FEE0FFF1FE40FF51F4D
:100B5000EB50F74DC280D380E480F5806701EE242E
:100B6000FF241196CD92DC92129784EFC81681E093
:100B7000D80630F4FD0123EF31E02183328311C028
:100B8000E5ECCE16E9E0DE0660F0F901EE0FFF1F9E
:100B90002E0F3F1FF901E75DF74D25EC39E021836A
:100BA00032839F5F01C090E0933008F43BCFC0E0F8
:100BB0005DC04C2F50E0FA01EE0FFF1FE40FF51F50
:100BC000E75DF74DA181B281D1E0DC0F2D2F6C2FB5
:100BD00012C0822F90E0FC01EE0FFF1F8E0F9F1FAF
:100BE000FC01E75DF74D818192818A179B0710F424
:100BF000622FDC012F5F233060F3C617B1F1862F1F
:100C000090E0FC01EE0FFF1F8E0F9F1FFC01E75DC0
:100C1000F74D6080718082801BC0262F30E0C901B3
:100C20000197D901AA0FBB1F2A0F3B1FD901A75D4E
:100C3000B74DFC01EE0FFF1F8E0F9F1FFC01E75DFC
:100C4000F74DC080D180E280CD92DD92EC92615070
:100C5000C61718F3FA01EE0FFF1F4E0F5F1FFA01C0
:100C6000E75DF74D608271828282CD2FC23008F439
:100C7000A0CF88EB9BE0789FA001799F500D1124B5
:100C8000872F880F870FA82FAA0FBA2F1A2F60E07F
:100C9000B9C0A62EB12CF501EE0FFF1FEA0DFB1D0A
:100CA000E75DF74D2081C181D28130E0F901EE0F7F
:100CB000FF1FEE0FFF1FEE0FFF1FE21BF30BEC5F9A
:100CC000FC4AE680812F90E0E4E1EA9D6001EB9D23
:100CD000D00C1124C40ED51EFC01EE0FFF1FEE0F29
:100CE000FF1FE80FF91FED5CF74DC382D482E2824B
:100CF000C43FE1E0DE07C8F4F901EE0FFF1FEE0F7D
:100D0000FF1FEE0FFF1FE21BF30BEC5FFC4AC280DC
:100D1000D380FC01EE0FFF1FEE0FFF1FE80FF91F3E
:100D2000ED5CF74DC082D18218C0F901EE0FFF1FB4
:100D3000EE0FFF1FEE0FFF1FE21BF30BEC5FFC4AF1
:100D4000C080D180FC01EE0FFF1FEE0FFF1FE80FE8
:100D5000F91FED5CF74DC082D182FC01EE0FFF1F41
:100D6000EE0FFF1F8E0F9F1FFC01ED5CF74DC38040
:100D7000D480CC0EDD1E83E0810F90E0FC01EE0FED
:100D8000FF1FEE0FFF1FE80FF91FED5CF74DC38249
:100D9000D482E282C53CD940D0F0F901EE0FFF1FAA
:100DA000EE0FFF1FEE0FFF1FE21BF30BEC5FFC4A81
:100DB00020813181FC01EE0FFF1FEE0FFF1F8E0F10
:100DC0009F1FFC01ED5CF74D2083318319C0F901B1
:100DD000EE0FFF1FEE0FFF1FEE0FFF1FE21BF30BC7
:100DE000EC5FFC4A22813381FC01EE0FFF1FEE0F06
:100DF000FF1F8E0F9F1FFC01ED5CF74D2083318399
:100E00001F5F6F5F633008F444CF60E020C0862F1F
:100E100090E08B0F911D9C012F5F3F4FF901EE0F6A
:100E2000FF1FEE0FFF1F2E0F3F1FF901ED5CF74D67
:100E300023813481FC01EE0FFF1FEE0FFF1F8E0F89
:100E40009F1FFC01ED5CF74D238334836F5F65309A
:100E5000F0F2483283E2580790F4B0E01596485417
:100E6000544FCD01880F991F880F991FA80FB91FE4
:100E7000AD5CB74D13964D935C9314970FC08A2FBA
:100E800090E00596FC01EE0FFF1FEE0FFF1F8E0F87
:100E90009F1FFC01ED5CF74D138214827F5F74305D
:100EA00008F481CEDF91CF911F910F91FF90EF90C9
:100EB000DF90CF90BF90AF909F908F907F906F907A
:100EC000089580E016C0282F30E0F901EE0FFF1FD3
:100ED000EE0FFF1FEE0FFF1FE21BF30BEC5FFC4A50
:100EE000A281B38196819C930480F581E02D90834B
:100EF0008F5F8C3040F388E180936D290E94BB04A2
:100F000008951F920F920FB60F9211248F939F9303
:100F1000AF93BF93EF93FF9380E180930B0A80918F
:100F20006D29E82FF0E08F5F80936D29CF01880F46
:100F3000991F880F991FE80FF91FED5CF74DA081ED
:100F4000B18182818C93838194818093280A9093CC
:100F5000290AFF91EF91BF91AF919F918F910F90CF
:100F60000FBE0F901F90189581E090E08093200AAB
:100F70009093210A1092280A1092290A87E0809300
:100F8000000A80E29EE48093260A9093270A10923A
:100F9000010A89E08093130180E180930B0A80931A
:100FA0000A0A08951F920F920FB60F9211248F9381
:100FB0009F93EF93FF9380916F29E82FF0E090913A
:100FC0000008EF58F64D90838F5F80936F298F3F15
:100FD00011F410926F29FF91EF919F918F910F90D3
:100FE0000FBE0F901F9018951F920F920FB60F9281
:100FF00011248F93EF93FF93E0916F2B80916E29D3
:10100000E81304C080E8809305080FC0F0E0E059C1
:10101000F54D80818093020880916F2B8F5F8093C4
:101020006F2B8F3F11F410926F2BFF91EF918F91E7
:101030000F900FBE0F901F901895E2EEF5E08081A3
:101040008C7F8160808385E191E080930808909394
:10105000090880E18093010480E28093020483E028
:101060008093070880EC8093060880E88093050849
:1010700008950895DC01E091702990916F29E91796
:1010800081F0F0E0EF58F64D80818C9380917029CB
:101090008F5F809370298F3F31F41092702981E027
:1010A000089580E0089581E0089590E89093050800
:1010B00090916E29E92FF0E0E059F54D80839F5F14
:1010C00090936E299F3F11F410926E2980EA8093CD
:1010D000050808950F931F93CF938C01C0E009C0BA
:1010E000F801EC0FF11D8081882329F00E9455083A
:1010F000CF5FC431A8F3CF911F910F9108951F9333
:10110000CF93DF93CDB7DEB72697CDBFDEBFAC015F
:101110001E8214E09A01ADECBCEC0E941009969579
:10112000879596958795969587959C01220F331FF5
:10113000880F991F880F991F880F991F820F931F7F
:101140009A01281B390BC901E1E0F0E0EC0FFD1F0B
:10115000E10FF11D17FDFA95805D80839A010E94D1
:101160001009AC0156954795569547955695479564
:1011700011504115510571F6812F110F990B0196F0
:1011800021E030E02C0F3D1F820F931F0E946A0860
:101190002696CDBFDEBFDF91CF911F910895A1E2CA
:1011A0001A2EAA1BBB1BFD010DC0AA1FBB1FEE1FE1
:1011B000FF1FA217B307E407F50720F0A21BB30B2C
:1011C000E40BF50B661F771F881F991F1A9469F7A8
:1011D00060957095809590959B01AC01BD01CF0104
:1011E0000895052E97FB1EF400940E94080957FDF0
:1011F00007D00E94CF0807FC03D04EF40C940809D6
:1012000050954095309521953F4F4F4F5F4F089532
:1012100090958095709561957F4F8F4F9F4F089562
:10122000A29FB001B39FC001A39F700D811D112427
:10123000911DB29F700D811D1124911D08950E9472
:101240001009B7FF0895821B930B08950E9410099F
:10125000A59F900DB49F900DA49F800D911D11240A
:1012600008950024A7FD00942A0F301D401D501D35
:10127000601D701D801D901D0895FC018827992711
:10128000E89421912032E9F3293010F02E30C8F390
:101290002B3241F02D3239F4689404C00E94750954
:1012A000820F911D219120532A30C0F31EF4909596
:1012B00081959F4F089591110C947D09803219F00A
:1012C00089508550C8F708959111089581568A5123
:1012D00008F4805285580895FB01DC018D9101903E
:1012E00080190110D9F3990B08957AE0979F902DFA
:1012F000879F802D910D112408959927882708959F
:04130000F894FFCF8F
:1013040005040604010440050406040104802504C0
:1013140026042104012504260421040225042604AC
:101324002104042504260421040825042604210498
:1013340010250426042104204504460441040145E3
:101344000446044104024504460441040445044699
:101354000441040856302E3120414C504841204964
:101364004E54434C4B0D00230048004C0051005197
:10137400430051500051560053005400564552004A
:101384006B533801016D533B01006F5359010077D2
:10139400536C01017153DF010073538701007653CD
:1013A4006A020079534C02007C538801017E539AEF
:0C13B40001018053DA010000000000007D
:0213C000FF002C
:00000001FF
